{
  "contractName": "Store",
  "abi": [
    {
      "anonymous": false,
      "inputs": [
        {
          "indexed": true,
          "internalType": "address",
          "name": "buyer",
          "type": "address"
        },
        {
          "indexed": true,
          "internalType": "address",
          "name": "seller",
          "type": "address"
        },
        {
          "indexed": false,
          "internalType": "uint256",
          "name": "sellPrice",
          "type": "uint256"
        }
      ],
      "name": "BuyNFT",
      "type": "event"
    },
    {
      "anonymous": false,
      "inputs": [
        {
          "indexed": true,
          "internalType": "address",
          "name": "owner",
          "type": "address"
        },
        {
          "indexed": false,
          "internalType": "uint256",
          "name": "price",
          "type": "uint256"
        }
      ],
      "name": "NewListing",
      "type": "event"
    },
    {
      "anonymous": false,
      "inputs": [
        {
          "indexed": true,
          "internalType": "address",
          "name": "owner",
          "type": "address"
        }
      ],
      "name": "RemoveListing",
      "type": "event"
    },
    {
      "anonymous": false,
      "inputs": [
        {
          "indexed": true,
          "internalType": "address",
          "name": "owner",
          "type": "address"
        },
        {
          "indexed": false,
          "internalType": "uint256",
          "name": "newPrice",
          "type": "uint256"
        },
        {
          "indexed": false,
          "internalType": "address",
          "name": "collection",
          "type": "address"
        },
        {
          "indexed": false,
          "internalType": "uint256",
          "name": "tokenID",
          "type": "uint256"
        }
      ],
      "name": "UpdateListing",
      "type": "event"
    },
    {
      "inputs": [
        {
          "internalType": "address",
          "name": "",
          "type": "address"
        },
        {
          "internalType": "address",
          "name": "",
          "type": "address"
        },
        {
          "internalType": "uint256",
          "name": "",
          "type": "uint256"
        },
        {
          "internalType": "bytes",
          "name": "",
          "type": "bytes"
        }
      ],
      "name": "onERC721Received",
      "outputs": [
        {
          "internalType": "bytes4",
          "name": "",
          "type": "bytes4"
        }
      ],
      "stateMutability": "nonpayable",
      "type": "function"
    },
    {
      "inputs": [
        {
          "internalType": "address",
          "name": "_collection",
          "type": "address"
        },
        {
          "internalType": "uint256",
          "name": "_tokenID",
          "type": "uint256"
        },
        {
          "internalType": "uint256",
          "name": "_price",
          "type": "uint256"
        }
      ],
      "name": "listNFT",
      "outputs": [],
      "stateMutability": "nonpayable",
      "type": "function"
    },
    {
      "inputs": [
        {
          "internalType": "address",
          "name": "_collection",
          "type": "address"
        },
        {
          "internalType": "uint256",
          "name": "_tokenID",
          "type": "uint256"
        },
        {
          "internalType": "uint256",
          "name": "_newPrice",
          "type": "uint256"
        }
      ],
      "name": "updateListing",
      "outputs": [],
      "stateMutability": "nonpayable",
      "type": "function"
    },
    {
      "inputs": [
        {
          "internalType": "address",
          "name": "_collection",
          "type": "address"
        },
        {
          "internalType": "uint256",
          "name": "_tokenID",
          "type": "uint256"
        }
      ],
      "name": "removeListing",
      "outputs": [],
      "stateMutability": "nonpayable",
      "type": "function"
    },
    {
      "inputs": [
        {
          "internalType": "address",
          "name": "_collection",
          "type": "address"
        },
        {
          "internalType": "uint256",
          "name": "_tokenID",
          "type": "uint256"
        }
      ],
      "name": "buyNFT",
      "outputs": [],
      "stateMutability": "payable",
      "type": "function",
      "payable": true
    }
  ],
  "bytecode": "0x608060405234801561001057600080fd5b50611713806100206000396000f3fe60806040526004361061004a5760003560e01c8063150b7a021461004f57806359edbe711461008c578063a82ba76f146100b5578063ad05f1b4146100d1578063f772adf1146100fa575b600080fd5b34801561005b57600080fd5b5061007660048036038101906100719190611006565b610123565b60405161008391906110c4565b60405180910390f35b34801561009857600080fd5b506100b360048036038101906100ae91906110df565b610137565b005b6100cf60048036038101906100ca91906110df565b61042c565b005b3480156100dd57600080fd5b506100f860048036038101906100f3919061111f565b61089b565b005b34801561010657600080fd5b50610121600480360381019061011c919061111f565b610bcb565b005b600063150b7a0260e01b9050949350505050565b8173ffffffffffffffffffffffffffffffffffffffff166301ffc9a76380ac58cd6040518263ffffffff1660e01b815260040161017491906111ba565b602060405180830381865afa158015610191573d6000803e3d6000fd5b505050506040513d601f19601f820116820180604052508101906101b5919061120d565b6101f4576040517f08c379a00000000000000000000000000000000000000000000000000000000081526004016101eb906112bd565b60405180910390fd5b600160008373ffffffffffffffffffffffffffffffffffffffff1673ffffffffffffffffffffffffffffffffffffffff168152602001908152602001600020600082815260200190815260200160002060000160009054906101000a900473ffffffffffffffffffffffffffffffffffffffff1673ffffffffffffffffffffffffffffffffffffffff163373ffffffffffffffffffffffffffffffffffffffff16146102d5576040517f08c379a00000000000000000000000000000000000000000000000000000000081526004016102cc9061134f565b60405180910390fd5b600160008373ffffffffffffffffffffffffffffffffffffffff1673ffffffffffffffffffffffffffffffffffffffff1681526020019081526020016000206000828152602001908152602001600020600080820160006101000a81549073ffffffffffffffffffffffffffffffffffffffff02191690556001820160009055600282016000905550506000808154809291906103719061139e565b91905055508173ffffffffffffffffffffffffffffffffffffffff166342842e0e3033846040518463ffffffff1660e01b81526004016103b3939291906113e6565b600060405180830381600087803b1580156103cd57600080fd5b505af11580156103e1573d6000803e3d6000fd5b505050503373ffffffffffffffffffffffffffffffffffffffff167f74e3689d43f450ebaff0006f8be25aa4ddf70d5209f8f5b7737b23cbd838196760405160405180910390a25050565b8173ffffffffffffffffffffffffffffffffffffffff166301ffc9a76380ac58cd6040518263ffffffff1660e01b815260040161046991906111ba565b602060405180830381865afa158015610486573d6000803e3d6000fd5b505050506040513d601f19601f820116820180604052508101906104aa919061120d565b6104e9576040517f08c379a00000000000000000000000000000000000000000000000000000000081526004016104e0906112bd565b60405180910390fd5b600073ffffffffffffffffffffffffffffffffffffffff16600160008473ffffffffffffffffffffffffffffffffffffffff1673ffffffffffffffffffffffffffffffffffffffff168152602001908152602001600020600083815260200190815260200160002060000160009054906101000a900473ffffffffffffffffffffffffffffffffffffffff1673ffffffffffffffffffffffffffffffffffffffff1614156105cc576040517f08c379a00000000000000000000000000000000000000000000000000000000081526004016105c390611469565b60405180910390fd5b600160008373ffffffffffffffffffffffffffffffffffffffff1673ffffffffffffffffffffffffffffffffffffffff168152602001908152602001600020600082815260200190815260200160002060010154341015610662576040517f08c379a0000000000000000000000000000000000000000000000000000000008152600401610659906114d5565b60405180910390fd5b6000600160008473ffffffffffffffffffffffffffffffffffffffff1673ffffffffffffffffffffffffffffffffffffffff168152602001908152602001600020600083815260200190815260200160002060000160009054906101000a900473ffffffffffffffffffffffffffffffffffffffff169050600160008473ffffffffffffffffffffffffffffffffffffffff1673ffffffffffffffffffffffffffffffffffffffff1681526020019081526020016000206000838152602001908152602001600020600080820160006101000a81549073ffffffffffffffffffffffffffffffffffffffff02191690556001820160009055600282016000905550506000808154809291906107769061139e565b91905055508273ffffffffffffffffffffffffffffffffffffffff166342842e0e3033856040518463ffffffff1660e01b81526004016107b8939291906113e6565b600060405180830381600087803b1580156107d257600080fd5b505af11580156107e6573d6000803e3d6000fd5b505050508073ffffffffffffffffffffffffffffffffffffffff166108fc349081150290604051600060405180830381858888f19350505050158015610830573d6000803e3d6000fd5b508073ffffffffffffffffffffffffffffffffffffffff163373ffffffffffffffffffffffffffffffffffffffff167fa510223e0a07eff695727201b17c3e58d458c3b140ed37b830ea3458d759ac5e3460405161088e91906114f5565b60405180910390a3505050565b8273ffffffffffffffffffffffffffffffffffffffff166301ffc9a76380ac58cd6040518263ffffffff1660e01b81526004016108d891906111ba565b602060405180830381865afa1580156108f5573d6000803e3d6000fd5b505050506040513d601f19601f82011682018060405250810190610919919061120d565b610958576040517f08c379a000000000000000000000000000000000000000000000000000000000815260040161094f906112bd565b60405180910390fd5b8273ffffffffffffffffffffffffffffffffffffffff1663e985e9c533306040518363ffffffff1660e01b8152600401610993929190611510565b602060405180830381865afa1580156109b0573d6000803e3d6000fd5b505050506040513d601f19601f820116820180604052508101906109d4919061120d565b610a13576040517f08c379a0000000000000000000000000000000000000000000000000000000008152600401610a0a906115ab565b60405180910390fd5b8273ffffffffffffffffffffffffffffffffffffffff166342842e0e3330856040518463ffffffff1660e01b8152600401610a50939291906113e6565b600060405180830381600087803b158015610a6a57600080fd5b505af1158015610a7e573d6000803e3d6000fd5b5050505060405180606001604052803373ffffffffffffffffffffffffffffffffffffffff16815260200182815260200142815250600160008573ffffffffffffffffffffffffffffffffffffffff1673ffffffffffffffffffffffffffffffffffffffff168152602001908152602001600020600084815260200190815260200160002060008201518160000160006101000a81548173ffffffffffffffffffffffffffffffffffffffff021916908373ffffffffffffffffffffffffffffffffffffffff1602179055506020820151816001015560408201518160020155905050600080815480929190610b73906115cb565b91905055503373ffffffffffffffffffffffffffffffffffffffff167fc0372598920e254f4ffaacd471660359e40acd4ea6ab2a5b66a8d00786510c1282604051610bbe91906114f5565b60405180910390a2505050565b8273ffffffffffffffffffffffffffffffffffffffff166301ffc9a76380ac58cd6040518263ffffffff1660e01b8152600401610c0891906111ba565b602060405180830381865afa158015610c25573d6000803e3d6000fd5b505050506040513d601f19601f82011682018060405250810190610c49919061120d565b610c88576040517f08c379a0000000000000000000000000000000000000000000000000000000008152600401610c7f906112bd565b60405180910390fd5b600160008473ffffffffffffffffffffffffffffffffffffffff1673ffffffffffffffffffffffffffffffffffffffff168152602001908152602001600020600083815260200190815260200160002060000160009054906101000a900473ffffffffffffffffffffffffffffffffffffffff1673ffffffffffffffffffffffffffffffffffffffff163373ffffffffffffffffffffffffffffffffffffffff1614610d69576040517f08c379a0000000000000000000000000000000000000000000000000000000008152600401610d6090611686565b60405180910390fd5b80600160008573ffffffffffffffffffffffffffffffffffffffff1673ffffffffffffffffffffffffffffffffffffffff1681526020019081526020016000206000848152602001908152602001600020600101819055503373ffffffffffffffffffffffffffffffffffffffff167f24aacc5b54afd548df193fb1dcf5e943e313d8519ed33fd957295224ef286376828585604051610e0b939291906116a6565b60405180910390a2505050565b6000604051905090565b600080fd5b600080fd5b600073ffffffffffffffffffffffffffffffffffffffff82169050919050565b6000610e5782610e2c565b9050919050565b610e6781610e4c565b8114610e7257600080fd5b50565b600081359050610e8481610e5e565b92915050565b6000819050919050565b610e9d81610e8a565b8114610ea857600080fd5b50565b600081359050610eba81610e94565b92915050565b600080fd5b600080fd5b6000601f19601f8301169050919050565b7f4e487b7100000000000000000000000000000000000000000000000000000000600052604160045260246000fd5b610f1382610eca565b810181811067ffffffffffffffff82111715610f3257610f31610edb565b5b80604052505050565b6000610f45610e18565b9050610f518282610f0a565b919050565b600067ffffffffffffffff821115610f7157610f70610edb565b5b610f7a82610eca565b9050602081019050919050565b82818337600083830152505050565b6000610fa9610fa484610f56565b610f3b565b905082815260208101848484011115610fc557610fc4610ec5565b5b610fd0848285610f87565b509392505050565b600082601f830112610fed57610fec610ec0565b5b8135610ffd848260208601610f96565b91505092915050565b600080600080608085870312156110205761101f610e22565b5b600061102e87828801610e75565b945050602061103f87828801610e75565b935050604061105087828801610eab565b925050606085013567ffffffffffffffff81111561107157611070610e27565b5b61107d87828801610fd8565b91505092959194509250565b60007fffffffff0000000000000000000000000000000000000000000000000000000082169050919050565b6110be81611089565b82525050565b60006020820190506110d960008301846110b5565b92915050565b600080604083850312156110f6576110f5610e22565b5b600061110485828601610e75565b925050602061111585828601610eab565b9150509250929050565b60008060006060848603121561113857611137610e22565b5b600061114686828701610e75565b935050602061115786828701610eab565b925050604061116886828701610eab565b9150509250925092565b6000819050919050565b60008160e01b9050919050565b60006111a461119f61119a84611172565b61117c565b611089565b9050919050565b6111b481611189565b82525050565b60006020820190506111cf60008301846111ab565b92915050565b60008115159050919050565b6111ea816111d5565b81146111f557600080fd5b50565b600081519050611207816111e1565b92915050565b60006020828403121561122357611222610e22565b5b6000611231848285016111f8565b91505092915050565b600082825260208201905092915050565b7f436f6c6c656374696f6e2061646472657373206973206e6f742076616c69642060008201527f4552433732312061646472657373000000000000000000000000000000000000602082015250565b60006112a7602e8361123a565b91506112b28261124b565b604082019050919050565b600060208201905081810360008301526112d68161129a565b9050919050565b7f4f6e6c79206f776e6572206f66206c697374696e672063616e2072656d6f766560008201527f206c697374696e67000000000000000000000000000000000000000000000000602082015250565b600061133960288361123a565b9150611344826112dd565b604082019050919050565b600060208201905081810360008301526113688161132c565b9050919050565b7f4e487b7100000000000000000000000000000000000000000000000000000000600052601160045260246000fd5b60006113a982610e8a565b915060008214156113bd576113bc61136f565b5b600182039050919050565b6113d181610e4c565b82525050565b6113e081610e8a565b82525050565b60006060820190506113fb60008301866113c8565b61140860208301856113c8565b61141560408301846113d7565b949350505050565b7f4e4654206c697374696e6720646f6573206e6f74206578697374000000000000600082015250565b6000611453601a8361123a565b915061145e8261141d565b602082019050919050565b6000602082019050818103600083015261148281611446565b9050919050565b7f496e61646571756174652066756e647320746f20627579204e46540000000000600082015250565b60006114bf601b8361123a565b91506114ca82611489565b602082019050919050565b600060208201905081810360008301526114ee816114b2565b9050919050565b600060208201905061150a60008301846113d7565b92915050565b600060408201905061152560008301856113c8565b61153260208301846113c8565b9392505050565b7f417070726f76652053746f726520746f207472616e7366657220796f7572204e60008201527f4654730000000000000000000000000000000000000000000000000000000000602082015250565b600061159560238361123a565b91506115a082611539565b604082019050919050565b600060208201905081810360008301526115c481611588565b9050919050565b60006115d682610e8a565b91507fffffffffffffffffffffffffffffffffffffffffffffffffffffffffffffffff8214156116095761160861136f565b5b600182019050919050565b7f4f6e6c79206f776e6572206f66206c697374696e672063616e2075706461746560008201527f206c697374696e67000000000000000000000000000000000000000000000000602082015250565b600061167060288361123a565b915061167b82611614565b604082019050919050565b6000602082019050818103600083015261169f81611663565b9050919050565b60006060820190506116bb60008301866113d7565b6116c860208301856113c8565b6116d560408301846113d7565b94935050505056fea2646970667358221220cf49b6c152166cb72208adbc3afdd138a11e55bd2ae6b6f9f476dd33b576385364736f6c634300080c0033",
  "immutableReferences": {},
  "source": "// SPDX-License-Identifier: GPL-3.0\r\npragma solidity ^0.8.0;\r\n\r\nimport \"@openzeppelin/contracts/token/ERC721/IERC721.sol\";\r\nimport \"@openzeppelin/contracts/token/ERC721/utils/ERC721Holder.sol\";\r\n\r\ncontract Store is ERC721Holder {\r\n    struct listing {\r\n        address payable owner;\r\n        uint256 price;\r\n        uint256 listDate;\r\n    }\r\n\r\n    uint256 totalSupply;\r\n\r\n    mapping(address => mapping(uint256 => listing)) registry;\r\n\r\n    event NewListing(address indexed owner, uint256 price);\r\n    event RemoveListing(address indexed owner);\r\n    event UpdateListing(\r\n        address indexed owner,\r\n        uint256 newPrice,\r\n        address collection,\r\n        uint256 tokenID\r\n    );\r\n    event BuyNFT(\r\n        address indexed buyer,\r\n        address indexed seller,\r\n        uint256 sellPrice\r\n    );\r\n\r\n    function listNFT(\r\n        address _collection,\r\n        uint256 _tokenID,\r\n        uint256 _price\r\n    ) external {\r\n        require(\r\n            IERC721(_collection).supportsInterface(0x80ac58cd),\r\n            \"Collection address is not valid ERC721 address\"\r\n        );\r\n        require(\r\n            IERC721(_collection).isApprovedForAll(msg.sender, address(this)),\r\n            \"Approve Store to transfer your NFTs\"\r\n        );\r\n\r\n        IERC721(_collection).safeTransferFrom(\r\n            msg.sender,\r\n            address(this),\r\n            _tokenID\r\n        );\r\n        registry[_collection][_tokenID] = listing(\r\n            payable(msg.sender),\r\n            _price,\r\n            block.timestamp\r\n        );\r\n        totalSupply++;\r\n\r\n        emit NewListing(msg.sender, _price);\r\n    }\r\n\r\n    function updateListing(\r\n        address _collection,\r\n        uint256 _tokenID,\r\n        uint256 _newPrice\r\n    ) external {\r\n        require(\r\n            IERC721(_collection).supportsInterface(0x80ac58cd),\r\n            \"Collection address is not valid ERC721 address\"\r\n        );\r\n        require(\r\n            msg.sender == registry[_collection][_tokenID].owner,\r\n            \"Only owner of listing can update listing\"\r\n        );\r\n\r\n        registry[_collection][_tokenID].price = _newPrice;\r\n\r\n        emit UpdateListing(msg.sender, _newPrice, _collection, _tokenID);\r\n    }\r\n\r\n    function removeListing(address _collection, uint256 _tokenID) external {\r\n        require(\r\n            IERC721(_collection).supportsInterface(0x80ac58cd),\r\n            \"Collection address is not valid ERC721 address\"\r\n        );\r\n        require(\r\n            msg.sender == registry[_collection][_tokenID].owner,\r\n            \"Only owner of listing can remove listing\"\r\n        );\r\n\r\n        delete (registry[_collection][_tokenID]);\r\n        totalSupply--;\r\n        IERC721(_collection).safeTransferFrom(\r\n            address(this),\r\n            msg.sender,\r\n            _tokenID\r\n        );\r\n\r\n        emit RemoveListing(msg.sender);\r\n    }\r\n\r\n    function buyNFT(address _collection, uint256 _tokenID) external payable {\r\n        require(\r\n            IERC721(_collection).supportsInterface(0x80ac58cd),\r\n            \"Collection address is not valid ERC721 address\"\r\n        );\r\n        require(\r\n            registry[_collection][_tokenID].owner != address(0),\r\n            \"NFT listing does not exist\"\r\n        );\r\n        require(\r\n            msg.value >= registry[_collection][_tokenID].price,\r\n            \"Inadequate funds to buy NFT\"\r\n        );\r\n\r\n        address payable owner = registry[_collection][_tokenID].owner;\r\n\r\n        delete (registry[_collection][_tokenID]);\r\n        totalSupply--;\r\n\r\n        IERC721(_collection).safeTransferFrom(\r\n            address(this),\r\n            msg.sender,\r\n            _tokenID\r\n        );\r\n        owner.transfer(msg.value);\r\n\r\n        emit BuyNFT(msg.sender, owner, msg.value);\r\n    }\r\n}\r\n",
  "sourcePath": "C:\\Users\\damiel\\practice\\simple-nft-marketplace\\contracts\\Store.sol",
  "compiler": {
    "name": "solc",
    "version": "0.8.12+commit.f00d7308.Emscripten.clang"
  },
  "schemaVersion": "3.4.6",
  "updatedAt": "2022-03-25T01:40:51.188Z",
  "networkType": "ethereum",
  "devdoc": {
    "kind": "dev",
    "methods": {
      "onERC721Received(address,address,uint256,bytes)": {
        "details": "See {IERC721Receiver-onERC721Received}. Always returns `IERC721Receiver.onERC721Received.selector`."
      }
    },
    "version": 1
  },
  "userdoc": {
    "kind": "user",
    "methods": {},
    "version": 1
  }
}